{
  "_format": "hh-sol-artifact-1",
  "contractName": "LandRegistry",
  "sourceName": "contracts/LandRegistry.sol",
  "abi": [
    {
      "inputs": [],
      "stateMutability": "nonpayable",
      "type": "constructor"
    },
    {
      "anonymous": false,
      "inputs": [
        {
          "indexed": true,
          "internalType": "uint256",
          "name": "id",
          "type": "uint256"
        },
        {
          "indexed": true,
          "internalType": "address",
          "name": "owner",
          "type": "address"
        },
        {
          "indexed": false,
          "internalType": "string",
          "name": "location",
          "type": "string"
        },
        {
          "indexed": false,
          "internalType": "uint256",
          "name": "value",
          "type": "uint256"
        },
        {
          "indexed": false,
          "internalType": "uint256",
          "name": "timestamp",
          "type": "uint256"
        }
      ],
      "name": "LandRegistered",
      "type": "event"
    },
    {
      "anonymous": false,
      "inputs": [
        {
          "indexed": true,
          "internalType": "uint256",
          "name": "id",
          "type": "uint256"
        },
        {
          "indexed": true,
          "internalType": "address",
          "name": "from",
          "type": "address"
        },
        {
          "indexed": true,
          "internalType": "address",
          "name": "to",
          "type": "address"
        },
        {
          "indexed": false,
          "internalType": "uint256",
          "name": "value",
          "type": "uint256"
        }
      ],
      "name": "LandTransferred",
      "type": "event"
    },
    {
      "anonymous": false,
      "inputs": [
        {
          "indexed": true,
          "internalType": "uint256",
          "name": "id",
          "type": "uint256"
        },
        {
          "indexed": true,
          "internalType": "address",
          "name": "verifier",
          "type": "address"
        }
      ],
      "name": "LandVerified",
      "type": "event"
    },
    {
      "anonymous": false,
      "inputs": [
        {
          "indexed": true,
          "internalType": "address",
          "name": "verifier",
          "type": "address"
        }
      ],
      "name": "VerifierAdded",
      "type": "event"
    },
    {
      "anonymous": false,
      "inputs": [
        {
          "indexed": true,
          "internalType": "address",
          "name": "verifier",
          "type": "address"
        }
      ],
      "name": "VerifierRemoved",
      "type": "event"
    },
    {
      "inputs": [
        {
          "internalType": "address",
          "name": "_verifier",
          "type": "address"
        }
      ],
      "name": "addVerifier",
      "outputs": [],
      "stateMutability": "nonpayable",
      "type": "function"
    },
    {
      "inputs": [],
      "name": "admin",
      "outputs": [
        {
          "internalType": "address",
          "name": "",
          "type": "address"
        }
      ],
      "stateMutability": "view",
      "type": "function"
    },
    {
      "inputs": [
        {
          "internalType": "uint256",
          "name": "_landId",
          "type": "uint256"
        }
      ],
      "name": "getLandDetails",
      "outputs": [
        {
          "components": [
            {
              "internalType": "uint256",
              "name": "id",
              "type": "uint256"
            },
            {
              "internalType": "address",
              "name": "owner",
              "type": "address"
            },
            {
              "internalType": "string",
              "name": "ownerName",
              "type": "string"
            },
            {
              "internalType": "uint256",
              "name": "area",
              "type": "uint256"
            },
            {
              "internalType": "string",
              "name": "location",
              "type": "string"
            },
            {
              "internalType": "uint256",
              "name": "value",
              "type": "uint256"
            },
            {
              "internalType": "string",
              "name": "description",
              "type": "string"
            },
            {
              "internalType": "bool",
              "name": "isVerified",
              "type": "bool"
            }
          ],
          "internalType": "struct LandRegistry.Land",
          "name": "",
          "type": "tuple"
        }
      ],
      "stateMutability": "view",
      "type": "function"
    },
    {
      "inputs": [
        {
          "internalType": "uint256",
          "name": "_landId",
          "type": "uint256"
        }
      ],
      "name": "getLandTransferHistory",
      "outputs": [
        {
          "components": [
            {
              "internalType": "address",
              "name": "from",
              "type": "address"
            },
            {
              "internalType": "address",
              "name": "to",
              "type": "address"
            },
            {
              "internalType": "uint256",
              "name": "value",
              "type": "uint256"
            },
            {
              "internalType": "uint256",
              "name": "timestamp",
              "type": "uint256"
            }
          ],
          "internalType": "struct LandRegistry.Transfer[]",
          "name": "",
          "type": "tuple[]"
        }
      ],
      "stateMutability": "view",
      "type": "function"
    },
    {
      "inputs": [
        {
          "internalType": "address",
          "name": "_owner",
          "type": "address"
        }
      ],
      "name": "getOwnerLands",
      "outputs": [
        {
          "internalType": "uint256[]",
          "name": "",
          "type": "uint256[]"
        }
      ],
      "stateMutability": "view",
      "type": "function"
    },
    {
      "inputs": [
        {
          "internalType": "uint256",
          "name": "",
          "type": "uint256"
        }
      ],
      "name": "lands",
      "outputs": [
        {
          "internalType": "uint256",
          "name": "id",
          "type": "uint256"
        },
        {
          "internalType": "address",
          "name": "owner",
          "type": "address"
        },
        {
          "internalType": "string",
          "name": "ownerName",
          "type": "string"
        },
        {
          "internalType": "uint256",
          "name": "area",
          "type": "uint256"
        },
        {
          "internalType": "string",
          "name": "location",
          "type": "string"
        },
        {
          "internalType": "uint256",
          "name": "value",
          "type": "uint256"
        },
        {
          "internalType": "string",
          "name": "description",
          "type": "string"
        },
        {
          "internalType": "bool",
          "name": "isVerified",
          "type": "bool"
        }
      ],
      "stateMutability": "view",
      "type": "function"
    },
    {
      "inputs": [
        {
          "internalType": "string",
          "name": "_ownerName",
          "type": "string"
        },
        {
          "internalType": "uint256",
          "name": "_area",
          "type": "uint256"
        },
        {
          "internalType": "string",
          "name": "_location",
          "type": "string"
        },
        {
          "internalType": "uint256",
          "name": "_value",
          "type": "uint256"
        },
        {
          "internalType": "string",
          "name": "_description",
          "type": "string"
        }
      ],
      "name": "registerLand",
      "outputs": [
        {
          "internalType": "uint256",
          "name": "",
          "type": "uint256"
        }
      ],
      "stateMutability": "nonpayable",
      "type": "function"
    },
    {
      "inputs": [
        {
          "internalType": "address",
          "name": "_verifier",
          "type": "address"
        }
      ],
      "name": "removeVerifier",
      "outputs": [],
      "stateMutability": "nonpayable",
      "type": "function"
    },
    {
      "inputs": [
        {
          "internalType": "uint256",
          "name": "",
          "type": "uint256"
        },
        {
          "internalType": "uint256",
          "name": "",
          "type": "uint256"
        }
      ],
      "name": "transferHistory",
      "outputs": [
        {
          "internalType": "address",
          "name": "from",
          "type": "address"
        },
        {
          "internalType": "address",
          "name": "to",
          "type": "address"
        },
        {
          "internalType": "uint256",
          "name": "value",
          "type": "uint256"
        },
        {
          "internalType": "uint256",
          "name": "timestamp",
          "type": "uint256"
        }
      ],
      "stateMutability": "view",
      "type": "function"
    },
    {
      "inputs": [
        {
          "internalType": "uint256",
          "name": "_landId",
          "type": "uint256"
        },
        {
          "internalType": "address",
          "name": "_newOwner",
          "type": "address"
        },
        {
          "internalType": "uint256",
          "name": "_newValue",
          "type": "uint256"
        }
      ],
      "name": "transferLand",
      "outputs": [],
      "stateMutability": "nonpayable",
      "type": "function"
    },
    {
      "inputs": [
        {
          "internalType": "address",
          "name": "",
          "type": "address"
        }
      ],
      "name": "verifiers",
      "outputs": [
        {
          "internalType": "bool",
          "name": "",
          "type": "bool"
        }
      ],
      "stateMutability": "view",
      "type": "function"
    },
    {
      "inputs": [
        {
          "internalType": "uint256",
          "name": "_landId",
          "type": "uint256"
        }
      ],
      "name": "verifyLand",
      "outputs": [],
      "stateMutability": "nonpayable",
      "type": "function"
    }
  ],
  "bytecode": "0x608060405234801561001057600080fd5b50336000806101000a81548173ffffffffffffffffffffffffffffffffffffffff021916908373ffffffffffffffffffffffffffffffffffffffff160217905550612957806100606000396000f3fe608060405234801561001057600080fd5b50600436106100b45760003560e01c8063dedaff5411610071578063dedaff54146101b1578063e0204df4146101e4578063e261f1e514610200578063f851a44014610237578063f9c43bdf14610255578063fe0cb7dc14610271576100b4565b80632683c976146100b95780636c824487146100e9578063756d98e7146101195780639000b3d614610149578063bf5172d714610165578063ca2dfd0a14610195575b600080fd5b6100d360048036038101906100ce9190611909565b6102a1565b6040516100e091906119e7565b60405180910390f35b61010360048036038101906100fe9190611a60565b610453565b6040516101109190611aa8565b60405180910390f35b610133600480360381019061012e9190611ac3565b610473565b6040516101409190611c12565b60405180910390f35b610163600480360381019061015e9190611a60565b6105f8565b005b61017f600480360381019061017a9190611a60565b6107b1565b60405161018c9190611ce3565b60405180910390f35b6101af60048036038101906101aa9190611a60565b610848565b005b6101cb60048036038101906101c69190611d05565b610a00565b6040516101db9493929190611d54565b60405180910390f35b6101fe60048036038101906101f99190611d99565b610a8d565b005b61021a60048036038101906102159190611ac3565b610f62565b60405161022e989796959493929190611e6b565b60405180910390f35b61023f61116f565b60405161024c9190611efe565b60405180910390f35b61026f600480360381019061026a9190611ac3565b611193565b005b61028b60048036038101906102869190611ac3565b61134c565b6040516102989190612030565b60405180910390f35b6000600160008154809291906102b690612081565b9190505550600060026000600154815260200190815260200160002090506001548160000181905550338160010160006101000a81548173ffffffffffffffffffffffffffffffffffffffff021916908373ffffffffffffffffffffffffffffffffffffffff1602179055508681600201908161033391906122d5565b508581600301819055508481600401908161034e91906122d5565b508381600501819055508281600601908161036991906122d5565b5060008160070160006101000a81548160ff021916908315150217905550600560003373ffffffffffffffffffffffffffffffffffffffff1673ffffffffffffffffffffffffffffffffffffffff16815260200190815260200160002060015490806001815401808255809150506001900390600052602060002001600090919091909150553373ffffffffffffffffffffffffffffffffffffffff166001547f0f22631b187cee535d0866556a899c9eecd339f80c9703e1057407b9f452bc1c87874260405161043c939291906123a7565b60405180910390a360015491505095945050505050565b60046020528060005260406000206000915054906101000a900460ff1681565b60608160008111801561048857506001548111155b6104c7576040517f08c379a00000000000000000000000000000000000000000000000000000000081526004016104be90612431565b60405180910390fd5b60036000848152602001908152602001600020805480602002602001604051908101604052809291908181526020016000905b828210156105ec57838290600052602060002090600402016040518060800160405290816000820160009054906101000a900473ffffffffffffffffffffffffffffffffffffffff1673ffffffffffffffffffffffffffffffffffffffff1673ffffffffffffffffffffffffffffffffffffffff1681526020016001820160009054906101000a900473ffffffffffffffffffffffffffffffffffffffff1673ffffffffffffffffffffffffffffffffffffffff1673ffffffffffffffffffffffffffffffffffffffff16815260200160028201548152602001600382015481525050815260200190600101906104fa565b50505050915050919050565b60008054906101000a900473ffffffffffffffffffffffffffffffffffffffff1673ffffffffffffffffffffffffffffffffffffffff163373ffffffffffffffffffffffffffffffffffffffff1614610686576040517f08c379a000000000000000000000000000000000000000000000000000000000815260040161067d906124c3565b60405180910390fd5b600460008273ffffffffffffffffffffffffffffffffffffffff1673ffffffffffffffffffffffffffffffffffffffff16815260200190815260200160002060009054906101000a900460ff1615610713576040517f08c379a000000000000000000000000000000000000000000000000000000000815260040161070a9061252f565b60405180910390fd5b6001600460008373ffffffffffffffffffffffffffffffffffffffff1673ffffffffffffffffffffffffffffffffffffffff16815260200190815260200160002060006101000a81548160ff0219169083151502179055508073ffffffffffffffffffffffffffffffffffffffff167f6d05492139c5ea989514a5d2150c028041e5c087e2a39967f67dc7d2655adb8160405160405180910390a250565b6060600560008373ffffffffffffffffffffffffffffffffffffffff1673ffffffffffffffffffffffffffffffffffffffff16815260200190815260200160002080548060200260200160405190810160405280929190818152602001828054801561083c57602002820191906000526020600020905b815481526020019060010190808311610828575b50505050509050919050565b60008054906101000a900473ffffffffffffffffffffffffffffffffffffffff1673ffffffffffffffffffffffffffffffffffffffff163373ffffffffffffffffffffffffffffffffffffffff16146108d6576040517f08c379a00000000000000000000000000000000000000000000000000000000081526004016108cd906124c3565b60405180910390fd5b600460008273ffffffffffffffffffffffffffffffffffffffff1673ffffffffffffffffffffffffffffffffffffffff16815260200190815260200160002060009054906101000a900460ff16610962576040517f08c379a00000000000000000000000000000000000000000000000000000000081526004016109599061259b565b60405180910390fd5b6000600460008373ffffffffffffffffffffffffffffffffffffffff1673ffffffffffffffffffffffffffffffffffffffff16815260200190815260200160002060006101000a81548160ff0219169083151502179055508073ffffffffffffffffffffffffffffffffffffffff167f44a3cd4eb5cc5748f6169df057b1cb2ae4c383e87cd94663c430e095d4cba42460405160405180910390a250565b60036020528160005260406000208181548110610a1c57600080fd5b9060005260206000209060040201600091509150508060000160009054906101000a900473ffffffffffffffffffffffffffffffffffffffff16908060010160009054906101000a900473ffffffffffffffffffffffffffffffffffffffff16908060020154908060030154905084565b82600081118015610aa057506001548111155b610adf576040517f08c379a0000000000000000000000000000000000000000000000000000000008152600401610ad690612431565b60405180910390fd5b833373ffffffffffffffffffffffffffffffffffffffff166002600083815260200190815260200160002060010160009054906101000a900473ffffffffffffffffffffffffffffffffffffffff1673ffffffffffffffffffffffffffffffffffffffff1614610b84576040517f08c379a0000000000000000000000000000000000000000000000000000000008152600401610b7b9061262d565b60405180910390fd5b6002600086815260200190815260200160002060070160009054906101000a900460ff16610be7576040517f08c379a0000000000000000000000000000000000000000000000000000000008152600401610bde90612699565b60405180910390fd5b600073ffffffffffffffffffffffffffffffffffffffff168473ffffffffffffffffffffffffffffffffffffffff1603610c56576040517f08c379a0000000000000000000000000000000000000000000000000000000008152600401610c4d90612705565b60405180910390fd5b3373ffffffffffffffffffffffffffffffffffffffff168473ffffffffffffffffffffffffffffffffffffffff1603610cc4576040517f08c379a0000000000000000000000000000000000000000000000000000000008152600401610cbb90612771565b60405180910390fd5b600060026000878152602001908152602001600020905060008160010160009054906101000a900473ffffffffffffffffffffffffffffffffffffffff169050858260010160006101000a81548173ffffffffffffffffffffffffffffffffffffffff021916908373ffffffffffffffffffffffffffffffffffffffff160217905550848260050181905550610d5a8188611612565b600560008773ffffffffffffffffffffffffffffffffffffffff1673ffffffffffffffffffffffffffffffffffffffff168152602001908152602001600020879080600181540180825580915050600190039060005260206000200160009091909190915055600060405180608001604052808373ffffffffffffffffffffffffffffffffffffffff1681526020018873ffffffffffffffffffffffffffffffffffffffff1681526020018781526020014281525090506003600089815260200190815260200160002081908060018154018082558091505060019003906000526020600020906004020160009091909190915060008201518160000160006101000a81548173ffffffffffffffffffffffffffffffffffffffff021916908373ffffffffffffffffffffffffffffffffffffffff16021790555060208201518160010160006101000a81548173ffffffffffffffffffffffffffffffffffffffff021916908373ffffffffffffffffffffffffffffffffffffffff160217905550604082015181600201556060820151816003015550508673ffffffffffffffffffffffffffffffffffffffff168273ffffffffffffffffffffffffffffffffffffffff16897f20b4587b96d546fb8dda06f8a11cc80fd5debab09bf4795380734af50f3d259c89604051610f5091906119e7565b60405180910390a45050505050505050565b60026020528060005260406000206000915090508060000154908060010160009054906101000a900473ffffffffffffffffffffffffffffffffffffffff1690806002018054610fb1906120f8565b80601f0160208091040260200160405190810160405280929190818152602001828054610fdd906120f8565b801561102a5780601f10610fff5761010080835404028352916020019161102a565b820191906000526020600020905b81548152906001019060200180831161100d57829003601f168201915b505050505090806003015490806004018054611045906120f8565b80601f0160208091040260200160405190810160405280929190818152602001828054611071906120f8565b80156110be5780601f10611093576101008083540402835291602001916110be565b820191906000526020600020905b8154815290600101906020018083116110a157829003601f168201915b5050505050908060050154908060060180546110d9906120f8565b80601f0160208091040260200160405190810160405280929190818152602001828054611105906120f8565b80156111525780601f1061112757610100808354040283529160200191611152565b820191906000526020600020905b81548152906001019060200180831161113557829003601f168201915b5050505050908060070160009054906101000a900460ff16905088565b60008054906101000a900473ffffffffffffffffffffffffffffffffffffffff1681565b600460003373ffffffffffffffffffffffffffffffffffffffff1673ffffffffffffffffffffffffffffffffffffffff16815260200190815260200160002060009054906101000a900460ff1661121f576040517f08c379a000000000000000000000000000000000000000000000000000000000815260040161121690612803565b60405180910390fd5b8060008111801561123257506001548111155b611271576040517f08c379a000000000000000000000000000000000000000000000000000000000815260040161126890612431565b60405180910390fd5b6002600083815260200190815260200160002060070160009054906101000a900460ff16156112d5576040517f08c379a00000000000000000000000000000000000000000000000000000000081526004016112cc9061286f565b60405180910390fd5b60016002600084815260200190815260200160002060070160006101000a81548160ff0219169083151502179055503373ffffffffffffffffffffffffffffffffffffffff16827ffb9625d8f3292b4f2c77920987a97b46155b934995873c85e64429df037b005b60405160405180910390a35050565b61135461171c565b8160008111801561136757506001548111155b6113a6576040517f08c379a000000000000000000000000000000000000000000000000000000000815260040161139d90612431565b60405180910390fd5b6002600084815260200190815260200160002060405180610100016040529081600082015481526020016001820160009054906101000a900473ffffffffffffffffffffffffffffffffffffffff1673ffffffffffffffffffffffffffffffffffffffff1673ffffffffffffffffffffffffffffffffffffffff168152602001600282018054611435906120f8565b80601f0160208091040260200160405190810160405280929190818152602001828054611461906120f8565b80156114ae5780601f10611483576101008083540402835291602001916114ae565b820191906000526020600020905b81548152906001019060200180831161149157829003601f168201915b50505050508152602001600382015481526020016004820180546114d1906120f8565b80601f01602080910402602001604051908101604052809291908181526020018280546114fd906120f8565b801561154a5780601f1061151f5761010080835404028352916020019161154a565b820191906000526020600020905b81548152906001019060200180831161152d57829003601f168201915b505050505081526020016005820154815260200160068201805461156d906120f8565b80601f0160208091040260200160405190810160405280929190818152602001828054611599906120f8565b80156115e65780601f106115bb576101008083540402835291602001916115e6565b820191906000526020600020905b8154815290600101906020018083116115c957829003601f168201915b505050505081526020016007820160009054906101000a900460ff161515151581525050915050919050565b6000600560008473ffffffffffffffffffffffffffffffffffffffff1673ffffffffffffffffffffffffffffffffffffffff168152602001908152602001600020905060005b818054905081101561171657828282815481106116785761167761288f565b5b90600052602060002001540361170357816001838054905061169a91906128be565b815481106116ab576116aa61288f565b5b90600052602060002001548282815481106116c9576116c861288f565b5b9060005260206000200181905550818054806116e8576116e76128f2565b5b60019003818190600052602060002001600090559055611716565b808061170e90612081565b915050611658565b50505050565b60405180610100016040528060008152602001600073ffffffffffffffffffffffffffffffffffffffff16815260200160608152602001600081526020016060815260200160008152602001606081526020016000151581525090565b6000604051905090565b600080fd5b600080fd5b600080fd5b600080fd5b6000601f19601f8301169050919050565b7f4e487b7100000000000000000000000000000000000000000000000000000000600052604160045260246000fd5b6117e082611797565b810181811067ffffffffffffffff821117156117ff576117fe6117a8565b5b80604052505050565b6000611812611779565b905061181e82826117d7565b919050565b600067ffffffffffffffff82111561183e5761183d6117a8565b5b61184782611797565b9050602081019050919050565b82818337600083830152505050565b600061187661187184611823565b611808565b90508281526020810184848401111561189257611891611792565b5b61189d848285611854565b509392505050565b600082601f8301126118ba576118b961178d565b5b81356118ca848260208601611863565b91505092915050565b6000819050919050565b6118e6816118d3565b81146118f157600080fd5b50565b600081359050611903816118dd565b92915050565b600080600080600060a0868803121561192557611924611783565b5b600086013567ffffffffffffffff81111561194357611942611788565b5b61194f888289016118a5565b9550506020611960888289016118f4565b945050604086013567ffffffffffffffff81111561198157611980611788565b5b61198d888289016118a5565b935050606061199e888289016118f4565b925050608086013567ffffffffffffffff8111156119bf576119be611788565b5b6119cb888289016118a5565b9150509295509295909350565b6119e1816118d3565b82525050565b60006020820190506119fc60008301846119d8565b92915050565b600073ffffffffffffffffffffffffffffffffffffffff82169050919050565b6000611a2d82611a02565b9050919050565b611a3d81611a22565b8114611a4857600080fd5b50565b600081359050611a5a81611a34565b92915050565b600060208284031215611a7657611a75611783565b5b6000611a8484828501611a4b565b91505092915050565b60008115159050919050565b611aa281611a8d565b82525050565b6000602082019050611abd6000830184611a99565b92915050565b600060208284031215611ad957611ad8611783565b5b6000611ae7848285016118f4565b91505092915050565b600081519050919050565b600082825260208201905092915050565b6000819050602082019050919050565b611b2581611a22565b82525050565b611b34816118d3565b82525050565b608082016000820151611b506000850182611b1c565b506020820151611b636020850182611b1c565b506040820151611b766040850182611b2b565b506060820151611b896060850182611b2b565b50505050565b6000611b9b8383611b3a565b60808301905092915050565b6000602082019050919050565b6000611bbf82611af0565b611bc98185611afb565b9350611bd483611b0c565b8060005b83811015611c05578151611bec8882611b8f565b9750611bf783611ba7565b925050600181019050611bd8565b5085935050505092915050565b60006020820190508181036000830152611c2c8184611bb4565b905092915050565b600081519050919050565b600082825260208201905092915050565b6000819050602082019050919050565b6000611c6c8383611b2b565b60208301905092915050565b6000602082019050919050565b6000611c9082611c34565b611c9a8185611c3f565b9350611ca583611c50565b8060005b83811015611cd6578151611cbd8882611c60565b9750611cc883611c78565b925050600181019050611ca9565b5085935050505092915050565b60006020820190508181036000830152611cfd8184611c85565b905092915050565b60008060408385031215611d1c57611d1b611783565b5b6000611d2a858286016118f4565b9250506020611d3b858286016118f4565b9150509250929050565b611d4e81611a22565b82525050565b6000608082019050611d696000830187611d45565b611d766020830186611d45565b611d8360408301856119d8565b611d9060608301846119d8565b95945050505050565b600080600060608486031215611db257611db1611783565b5b6000611dc0868287016118f4565b9350506020611dd186828701611a4b565b9250506040611de2868287016118f4565b9150509250925092565b600081519050919050565b600082825260208201905092915050565b60005b83811015611e26578082015181840152602081019050611e0b565b60008484015250505050565b6000611e3d82611dec565b611e478185611df7565b9350611e57818560208601611e08565b611e6081611797565b840191505092915050565b600061010082019050611e81600083018b6119d8565b611e8e602083018a611d45565b8181036040830152611ea08189611e32565b9050611eaf60608301886119d8565b8181036080830152611ec18187611e32565b9050611ed060a08301866119d8565b81810360c0830152611ee28185611e32565b9050611ef160e0830184611a99565b9998505050505050505050565b6000602082019050611f136000830184611d45565b92915050565b600082825260208201905092915050565b6000611f3582611dec565b611f3f8185611f19565b9350611f4f818560208601611e08565b611f5881611797565b840191505092915050565b611f6c81611a8d565b82525050565b600061010083016000830151611f8b6000860182611b2b565b506020830151611f9e6020860182611b1c565b5060408301518482036040860152611fb68282611f2a565b9150506060830151611fcb6060860182611b2b565b5060808301518482036080860152611fe38282611f2a565b91505060a0830151611ff860a0860182611b2b565b5060c083015184820360c08601526120108282611f2a565b91505060e083015161202560e0860182611f63565b508091505092915050565b6000602082019050818103600083015261204a8184611f72565b905092915050565b7f4e487b7100000000000000000000000000000000000000000000000000000000600052601160045260246000fd5b600061208c826118d3565b91507fffffffffffffffffffffffffffffffffffffffffffffffffffffffffffffffff82036120be576120bd612052565b5b600182019050919050565b7f4e487b7100000000000000000000000000000000000000000000000000000000600052602260045260246000fd5b6000600282049050600182168061211057607f821691505b602082108103612123576121226120c9565b5b50919050565b60008190508160005260206000209050919050565b60006020601f8301049050919050565b600082821b905092915050565b60006008830261218b7fffffffffffffffffffffffffffffffffffffffffffffffffffffffffffffffff8261214e565b612195868361214e565b95508019841693508086168417925050509392505050565b6000819050919050565b60006121d26121cd6121c8846118d3565b6121ad565b6118d3565b9050919050565b6000819050919050565b6121ec836121b7565b6122006121f8826121d9565b84845461215b565b825550505050565b600090565b612215612208565b6122208184846121e3565b505050565b5b818110156122445761223960008261220d565b600181019050612226565b5050565b601f8211156122895761225a81612129565b6122638461213e565b81016020851015612272578190505b61228661227e8561213e565b830182612225565b50505b505050565b600082821c905092915050565b60006122ac6000198460080261228e565b1980831691505092915050565b60006122c5838361229b565b9150826002028217905092915050565b6122de82611dec565b67ffffffffffffffff8111156122f7576122f66117a8565b5b61230182546120f8565b61230c828285612248565b600060209050601f83116001811461233f576000841561232d578287015190505b61233785826122b9565b86555061239f565b601f19841661234d86612129565b60005b8281101561237557848901518255600182019150602085019450602081019050612350565b86831015612392578489015161238e601f89168261229b565b8355505b6001600288020188555050505b505050505050565b600060608201905081810360008301526123c18186611e32565b90506123d060208301856119d8565b6123dd60408301846119d8565b949350505050565b7f4c616e6420646f6573206e6f7420657869737400000000000000000000000000600082015250565b600061241b601383611df7565b9150612426826123e5565b602082019050919050565b6000602082019050818103600083015261244a8161240e565b9050919050565b7f4f6e6c792061646d696e2063616e20706572666f726d2074686973206163746960008201527f6f6e000000000000000000000000000000000000000000000000000000000000602082015250565b60006124ad602283611df7565b91506124b882612451565b604082019050919050565b600060208201905081810360008301526124dc816124a0565b9050919050565b7f566572696669657220616c726561647920657869737473000000000000000000600082015250565b6000612519601783611df7565b9150612524826124e3565b602082019050919050565b600060208201905081810360008301526125488161250c565b9050919050565b7f566572696669657220646f6573206e6f74206578697374000000000000000000600082015250565b6000612585601783611df7565b91506125908261254f565b602082019050919050565b600060208201905081810360008301526125b481612578565b9050919050565b7f4f6e6c79206c616e64206f776e65722063616e20706572666f726d207468697360008201527f20616374696f6e00000000000000000000000000000000000000000000000000602082015250565b6000612617602783611df7565b9150612622826125bb565b604082019050919050565b600060208201905081810360008301526126468161260a565b9050919050565b7f4c616e64206973206e6f74207665726966696564000000000000000000000000600082015250565b6000612683601483611df7565b915061268e8261264d565b602082019050919050565b600060208201905081810360008301526126b281612676565b9050919050565b7f496e76616c6964206e6577206f776e6572206164647265737300000000000000600082015250565b60006126ef601983611df7565b91506126fa826126b9565b602082019050919050565b6000602082019050818103600083015261271e816126e2565b9050919050565b7f43616e6e6f74207472616e7366657220746f2073656c66000000000000000000600082015250565b600061275b601783611df7565b915061276682612725565b602082019050919050565b6000602082019050818103600083015261278a8161274e565b9050919050565b7f4f6e6c792076657269666965722063616e20706572666f726d2074686973206160008201527f6374696f6e000000000000000000000000000000000000000000000000000000602082015250565b60006127ed602583611df7565b91506127f882612791565b604082019050919050565b6000602082019050818103600083015261281c816127e0565b9050919050565b7f4c616e6420697320616c72656164792076657269666965640000000000000000600082015250565b6000612859601883611df7565b915061286482612823565b602082019050919050565b600060208201905081810360008301526128888161284c565b9050919050565b7f4e487b7100000000000000000000000000000000000000000000000000000000600052603260045260246000fd5b60006128c9826118d3565b91506128d4836118d3565b92508282039050818111156128ec576128eb612052565b5b92915050565b7f4e487b7100000000000000000000000000000000000000000000000000000000600052603160045260246000fdfea2646970667358221220af5b6d21e498a8f5e22923b75b513ebe0c7f5ea48c971fa49d0e8069fee56de364736f6c63430008130033",
  "linkReferences": {},
  "deployedLinkReferences": {}
}